:100000000C9464000C948C000C948C000C948C0068
:100010000C948C000C948C000C948C000C948C0030
:100020000C948C000C948C000C948C000C948C0020
:100030000C948C000C948C000C948C000C948C0010
:100040000C94D7080C948C000C94D60B0C94080CD0
:100050000C948C000C948C000C948C000C948C00F0
:100060000C948C000C948C0000000008000201002D
:100070000003040700000000000000000102040863
:100080001020408001020408102001020408102002
:10009000040404040404040402020202020203032E
:1000A00003030303000000002300260029000000D2
:1000B0000000250028002B0000000000240027007D
:1000C0002A00ED05380C1E0611241FBECFEFD8E024
:1000D000DEBFCDBF11E0A0E0B1E0E8E5F2E202C092
:1000E00005900D92A237B107D9F724E0A2E7B1E05D
:1000F00001C01D92A135B207E1F710E0C6ECD0E0D7
:1001000004C02297FE010E94820EC23CD107C9F7AB
:100110000E944E0E0C941F110C9400008DE893E089
:100120000E94DF0C83E993E00E94DF0C89E993E0F1
:100130000C94DF0C0C94C2100C94CA108091A5038F
:100140009091A60301979093A6038093A5038091B5
:10015000A1039091A203843691055CF010928B0369
:1001600010928A031092890360E087E090E00C947B
:100170009C0008950F93CF93DF931F92CDB7DEB706
:1001800026E040E855E260E070E080EB93E00E94FA
:10019000740B20E042E060E182E791E00E94D60625
:1001A00062E082E00E94F90962E083E00E94F909BE
:1001B00062E084E00E94F90962E085E00E94F909AA
:1001C00061E08CE00E94F90961E08BE00E94F9098E
:1001D00061E08AE00E94F90961E08DE00E94F9097E
:1001E00060E08CE00E94320A60E08BE00E94320AFC
:1001F00060E08AE00E94320A60E08DE00E94320AEC
:100200002EE930E048EE53E060E070E08EED92E0E1
:100210000E94770800E028EE33E040E050E06CE018
:1002200084E392E00E94CB0801E024EF31E040E05B
:1002300050E06DE08AE891E00E94CB0880E090E019
:100240000E949A00682F282F30E03093A203209359
:10025000A10381E090E069830E949A00282F30E09A
:100260003093A4032093A3031092A6031092A50336
:10027000698183E090E00E949C006091A30384E088
:1002800090E00E949C006091A50385E090E00E94B0
:100290009C0060E087E090E00F90DF91CF910F919C
:1002A0000C949C000F931F93CF93DF93CDB7DEB7D1
:1002B0002C970FB6F894DEBF0FBECDBF8C014AE07D
:1002C0006A30F0F4CE0107960E949B0D66E071E063
:1002D000CE0101960E944D0DBE01695F7F4FCE0198
:1002E00001960E94200EBC01C8010E947A0DCE0129
:1002F00001960E94DF0CCE0107960E94DF0C02C01F
:100300000E949B0DC8012C960FB6F894DEBF0FBE5D
:10031000CDBFDF91CF911F910F910895EF92FF9282
:100320000F931F93CF93DF93CDB7DEB769970FB6C7
:10033000F894DEBF0FBECDBF60E082E090E00E9487
:100340009C0080E090E00E949A00082F10E081E07D
:1003500090E00E949A00E82EF12C82E791E00E9442
:10036000B50682E00E94680A892B09F055C082E038
:100370000E94680A892BD9F366E970E080E090E07A
:100380000E94500964EF71E080E090E00E94500903
:1003900082E791E00E94B50680E090E00E949A001A
:1003A000682F282F30E03093A2032093A10381E02F
:1003B00090E0698F0E949A00282F30E03093A403C8
:1003C0002093A30382E090E00E949A00282F30E05F
:1003D0003093A6032093A503698D83E090E00E94EB
:1003E0009C006091A30384E090E00E949C006091D7
:1003F000A50385E090E00E949C0010928C03699612
:100400000FB6F894DEBF0FBECDBFDF91CF911F9125
:100410000F91FF90EF90089583E00E94680A892B66
:1004200061F483E00E94680A892BD9F366E970E0E1
:1004300080E090E00E9450093CC184E00E94680A7C
:10044000892B61F466E970E080E090E00E94500939
:1004500001501109A8F403E610E012C085E00E94E3
:10046000680A892B91F466E970E080E090E00E94D0
:1004700050090F5F1F4F0336110514F000E010E024
:10048000602F80E090E00E949C008DE00E94680A4E
:1004900060E0892B09F041C0CE0101960E94520113
:1004A0006E2DCE0107960E945201602FCE01439619
:1004B0000E94520168E071E0CE010D960E944D0D40
:1004C000BE016D5E7F4FCE010D960E94200E68E149
:1004D00071E00E94330EBE01695F7F4F0E94200EC3
:1004E00068E171E00E94330EBE016F5F7F4F0E9492
:1004F000200E6DE071E00E94330EBC018DE893E0A8
:100500000E94630DCE010D960E94DF0CCE01439632
:100510000E94DF0CCE0107962EC0CE0101960E94EC
:1005200052016E2DCE010D960E94520162E171E0E2
:10053000CE0107960E944D0DBE01635F7F4FCE0135
:1005400007960E94200E68E171E00E94330EBE0102
:100550006F5F7F4F0E94200E6DE071E00E94330EAE
:10056000BC018DE893E00E94630DCE0107960E94C6
:10057000DF0CCE010D960E94DF0CCE0101960E9489
:10058000DF0C40E060E082E791E00E94BC066DE88D
:1005900073E082E791E00E94B90C41E060E082E7FD
:1005A00091E00E94BC066AE171E082E791E00E945E
:1005B000C70C8AE891E00E941A08D3CE83E00E941B
:1005C000680A892B09F481C084E00E94680A892B9B
:1005D00009F487C085E00E94680A892B09F48FC05E
:1005E0008DE00E94680A60E0892B09F09DC0CE0171
:1005F00001960E9452016E2DCE0107960E94520173
:10060000602FCE0143960E94520168E071E0CE0156
:100610000D960E944D0DBE016D5E7F4FCE010D9671
:100620000E94200E68E171E00E94330EBE01695FF6
:100630007F4F0E94200E68E171E00E94330EBE01E0
:100640006F5F7F4F0E94200E6DE071E00E94330EBD
:10065000BC018DE893E00E94630DCE010D960E94CF
:10066000DF0CCE0143960E94DF0CCE0107960E945C
:10067000DF0CCE0101960E94DF0C40E060E082E7D3
:1006800091E00E94BC066DE873E082E791E00E9471
:10069000B90C41E060E082E791E00E94BC066AE1AB
:1006A00071E082E791E00E94C70C8AE891E00E9425
:1006B0001A0882E00E94680A892B09F07FCF82E045
:1006C0000E94680A892BD9F357CE83E00E94680AFA
:1006D000892BD9F366E970E080E090E00E94500930
:1006E00040CE66E970E080E090E00E94500981E031
:1006F000E81AF10898F48BE3E82EF12C0FC066E9B4
:1007000070E080E090E00E9450098FEFE81AF80A4C
:100710008CE3E816F10414F0E12CF12C6E2D81E04D
:1007200090E00E949C005CCFCE0101960E94520195
:10073000602FCE010D960E94520168E071E0CE015B
:1007400007960E944D0DBE01635F7F4FCE01079655
:100750000E94200E6BE271E00E94330EBE016F5FBB
:100760007F4F0E94200E6DE071E00E94330EBC01AD
:100770008DE893E00E94630DCE0107960E94DF0C86
:10078000CE010D9674CFCF93DF93CDB7DEB76E97C2
:100790000FB6F894DEBF0FBECDBF82E00E94680A9C
:1007A000892BE9F482E00E94680A892BD9F366E973
:1007B00070E080E090E00E945009109289038091DF
:1007C0008A03811105C081E080938A0361E003C040
:1007D00010928A0360E087E090E00E949C0083E032
:1007E0000E94680A892BB9F483E00E94680A892B69
:1007F000D9F366E970E080E090E00E945009109221
:10080000890380918B03811104C081E080938C0364
:1008100002C010928C0384E00E94680A892BE1F4E4
:1008200084E00E94680A892BD9F366E970E080E0D1
:1008300090E00E9450091092890380918B038111EE
:1008400009C061E087E090E00E949C0081E0809315
:100850008B0302C010928B0385E00E94680A892BEB
:1008600051F585E00E94680A892BD9F366E970E0AA
:1008700080E090E00E94500910928B03109289034F
:1008800080E090E00E949A0090E09093A203809311
:10089000A10381E090E00E949A0090E09093A4036D
:1008A0008093A3031092A6031092A50360E087E053
:1008B00090E00E949C008091A1039091A203843655
:1008C0009105B8F01092A2031092A1031092A40314
:1008D0001092A3031092A6031092A50310928B030B
:1008E00010928A031092890360E087E090E00E94F2
:1008F0009C008BE00E94680A019719F460E371E0A4
:1009000002C064E371E089E993E00E94830D809165
:100910008C0381110E948E0180918B03882309F43E
:1009200047C08EED92E00E941A088091A503909135
:10093000A60397FF0FC08BE390E09093A6038093EC
:10094000A5038091A3039091A40301979093A4031E
:100950008093A3038091A3039091A40397FF0FC0FA
:100960008091A1039091A20301979093A203809399
:10097000A1038BE390E09093A4038093A303809161
:10098000A1039091A203892B89F48091A3039091F4
:10099000A403892B59F48091A5039091A603019794
:1009A0000A9720F481E08093890302C010928903A2
:1009B00080918903882321F084E392E00E941A0841
:1009C0008DE00E94680A019721F4809188038111CB
:1009D000F4C08DE00E94680A892B29F48091880375
:1009E000882309F4F6C080919F039091A003059796
:1009F00044F082E791E00E94B5061092A0031092A5
:100A00009F0320E042E060E182E791E00E94D60689
:100A10006091A503CE0101960E9452016091A3034B
:100A2000CE0107960E9452016091A103CE01439628
:100A30000E94520168E071E0CE010D960E944D0DBA
:100A4000BE016D5E7F4FCE010D960E94200E68E1C3
:100A500071E00E94330EBE01695F7F4F0E94200E3D
:100A600068E171E00E94330EBE016F5F7F4F0E940C
:100A7000200E6DE071E00E94330EBC018DE893E022
:100A80000E94630DCE010D960E94DF0CCE014396AD
:100A90000E94DF0CCE0107960E94DF0CCE0101966A
:100AA0000E94DF0C40E060E082E791E00E94BC061B
:100AB0006DE873E082E791E00E94B90C41E060E0EC
:100AC00082E791E00E94BC0668E371E082E791E072
:100AD0000E94C70C87E090E00E949A00682F8BE08C
:100AE0000E94320A87E090E00E949A00682F8AE014
:100AF0000E94320A6091A5037091A6034AE0CE01DC
:100B000001960E94C80D6091A3037091A4034AE06E
:100B1000CE0107960E94C80D6091A1037091A203B7
:100B20004AE0CE0143960E94C80DBE016D5E7F4F24
:100B3000CE010D960E947A0D68E171E0CE010D960E
:100B40000E94330EBE01695F7F4F0E94200E68E154
:100B500071E00E94330EBE016F5F7F4F0E94200E36
:100B6000BC01CE0149960E947A0DCE010D960E94DD
:100B7000DF0CCE0143960E94DF0CCE0107960E9447
:100B8000DF0CCE0101960E94DF0CBE01675E7F4F35
:100B900080EB93E00E94CD0C8AE891E00E941A0855
:100BA000CE0149960E94DF0C6E960FB6F894DEBF18
:100BB0000FBECDBFDF91CF91089580919F0390919B
:100BC000A00301969093A00380939F031092880343
:100BD0000ACF81E08093880306CFCF92EF920F93E4
:100BE00063E671E089E993E00E944D0D63E671E0F0
:100BF00083E993E00E944D0D63E671E08DE893E098
:100C00000E944D0D8EED92E00E94E70784E392E092
:100C10000E94E7078AE891E00E94E70793E1C92E66
:100C200022E1E22E01E120E14FE06EE082E791E077
:100C30000E9474070F91EF90CF9008950C948E004E
:100C4000CF93DF93EC0160E08E810E94320A81E055
:100C500090E00E948A0961E08E810E94320A81E060
:100C600090E00E948A0960E08E810E94320A84E648
:100C700090E0DF91CF910C948A09EF92FF920F934D
:100C80001F93CF93DF938C01C0E0D0E0E62EF12CD0
:100C9000B7010C2E02C0759567950A94E2F7617052
:100CA000F801EC0FFD1F87810E94320A2196C430A3
:100CB000D10571F7C801DF91CF911F910F91FF907E
:100CC000EF900C942006EF92FF920F931F93CF9317
:100CD000DF938C01C0E0D0E0E62EF12CB7010C2EA2
:100CE00002C0759567950A94E2F76170F801EC0F00
:100CF000FD1F87810E94320A2196C830D10571F705
:100D0000C801DF91CF911F910F91FF90EF900C944C
:100D100020061F93CF93DF93EC01162F642F8C8155
:100D20000E94320A8D818F3F19F060E00E94320AE2
:100D30008F85612F84FF06C0CE01DF91CF911F9177
:100D40000C94630670E084E0759567958A95E1F7E9
:100D5000CE010E943D06612FCE01DF91CF911F9100
:100D60000C943D0640E00C94890661E00E94B206B6
:100D700080ED97E00C948A09443008F043E0FC01D0
:100D80002389421710F04FEF420FFC01E40FF11DD1
:100D90002489260F2068622F0C94B206FC0160891A
:100DA000262F2460208B6C600C94B2060F931F9347
:100DB000CF93DF93EC01423018F08F8588608F87E6
:100DC0004B8B1C8A80E48D8B6E8B70E0605C7F4F58
:100DD0006F8B222329F0413019F48F8584608F872F
:100DE00061E08C810E94F9098D818F3F19F061E0EB
:100DF0000E94F90961E08E810E94F90900E010E08B
:100E00008F8584FF03C088E090E002C084E090E01A
:100E10000817190754F4FE01E00FF11F61E0878104
:100E20000E94F9090F5F1F4FEBCF80E593EC0E9402
:100E30008A0960E08C810E94320A60E08E810E9403
:100E4000320A8D818F3F19F060E00E94320A6F856F
:100E500064FD1DC063E0CE010E943D0684E991E17E
:100E60000E948A0963E0CE010E943D0684E991E177
:100E70000E948A0963E0CE010E943D0686E990E067
:100E80000E948A0962E0CE010E943D0616C060629F
:100E9000CE010E94B20684E991E10E948A096F8521
:100EA0006062CE010E94B20686E990E00E948A0943
:100EB0006F856062CE010E94B2066F856062CE01CE
:100EC0000E94B20684E0888BCE010E94CE06CE013D
:100ED0000E94B50682E0898B66E0CE01DF91CF915A
:100EE0001F910F910C94B206CF92EF920F93FC01D9
:100EF000138212828DE491E09183808364838FEF6B
:100F00008583468327830087E186C28613861486FD
:100F100015861686178620E041E060E1CF010F912B
:100F2000EF90CF900C94D60641E00E94890681E0B4
:100F300090E00895FC0110820895CF92DF92EF9225
:100F4000FF92CF93DF93EC016A017B018B859C8537
:100F5000AD85BE859A01AB01281B390B4A0B5B0B93
:100F6000DA01C90149815A816B817C818417950717
:100F7000A607B707D8F08881813019F0823029F0B0
:100F80000CC0E985FA85099508C061E08885811162
:100F900060E068878F810E94320ACB86DC86ED860E
:100FA000FE868F8598890196988B8F878D819E818B
:100FB00097FD06C02F853889281739070CF018824D
:100FC000DF91CF91FF90EF90DF90CF9008950F9336
:100FD0001F93CF93DF93EC018C0106551F4FCE0179
:100FE0000E949A076196C017D107C9F7DF91CF9188
:100FF0001F910F910895CF92DF92EF92FF921F936E
:10100000CF93DF936A017B01EC011AE0888188238A
:1010100029F0B701A601CE010E949D0711506196EB
:101020001111F4CFDF91CF911F91FF90EF90DF90DE
:10103000CF900895CF93DF93EC010E942109AB017B
:10104000BC01CE01DF91CF910C94FB0720E0FC01A5
:101050003081332331F02F5F41962A30C1F78FEF73
:101060000895822F0895CF92DF92EF92FF920F930F
:101070001F93CF93DF9300D000D0CDB7DEB76C01C4
:10108000790149835A836B837C830E942608282F29
:1010900049815A816B817C818F3FD9F081E128029F
:1010A000C00CD11C112481E0F6018083418352835E
:1010B0006383748316830583F286E18629830E9405
:1010C0002109F6016387748785879687108A1786BA
:1010D0002981822F0F900F900F900F90DF91CF9169
:1010E0001F910F91FF90EF90DF90CF9008950F9395
:1010F0001F930FEF1FEF0E9433081F910F91089568
:10110000AF92BF92DF92EF92FF920F931F93CF9314
:10111000DF9300D000D0CDB7DEB75C01D62E298397
:101120003A834B835C830E942608182F29813A81D9
:101130004B815C818F3F01F181E11802A00CB11C51
:10114000112482E0F5018083D78221833283438397
:1011500054830087602F8D2D0E94320AEE0CFF1CF5
:10116000F501F682E5820E942109F5016387748703
:1011700085879687108A1786812F0F900F900F9082
:101180000F90DF91CF911F910F91FF90EF90DF9023
:10119000BF90AF900895EF92FF920F93EE24EA94E0
:1011A000FE2C0E9480080F91FF90EF9008951F92EF
:1011B0000F920FB60F9211242F933F938F939F930B
:1011C000AF93BF938091A8039091A903A091AA0324
:1011D000B091AB033091A70323E0230F2D3720F408
:1011E0000196A11DB11D05C026E8230F0296A11D81
:1011F000B11D2093A7038093A8039093A903A09304
:10120000AA03B093AB038091AC039091AD03A0917E
:10121000AE03B091AF030196A11DB11D8093AC0345
:101220009093AD03A093AE03B093AF03BF91AF9182
:101230009F918F913F912F910F900FBE0F901F9014
:1012400018952FB7F8946091A8037091A903809125
:10125000AA039091AB032FBF08953FB7F8948091F4
:10126000AC039091AD03A091AE03B091AF0326B54E
:10127000A89B05C02F3F19F00196A11DB11D3FBFCE
:101280006627782F892F9A2F620F711D811D911D5E
:1012900042E0660F771F881F991F4A95D1F708957E
:1012A0008F929F92AF92BF92CF92DF92EF92FF9276
:1012B0006B017C010E942D094B015C01C114D1041A
:1012C000E104F104F1F00E945D0E0E942D096819FD
:1012D00079098A099B09683E73408105910570F37D
:1012E00021E0C21AD108E108F10888EE880E83E0F7
:1012F000981EA11CB11CC114D104E104F10429F70A
:10130000DDCFFF90EF90DF90CF90BF90AF909F9098
:101310008F9008958230910538F0880F991F880FBB
:10132000991F05970197F1F70895789484B5826025
:1013300084BD84B5816084BD85B5826085BD85B579
:10134000816085BDEEE6F0E0808181608083E1E828
:10135000F0E0108280818260808380818160808360
:10136000E0E8F0E0808181608083E1EBF0E0808163
:1013700084608083E0EBF0E0808181608083EAE735
:10138000F0E08081846080838081826080838081BE
:10139000816080838081806880831092C10008957D
:1013A000833081F028F4813099F08230A1F00895E3
:1013B0008730A9F08830B9F08430D1F48091800072
:1013C0008F7D03C0809180008F7780938000089587
:1013D00084B58F7702C084B58F7D84BD08958091D8
:1013E000B0008F7703C08091B0008F7D8093B000F4
:1013F0000895CF93DF9390E0FC01E458FF4F2491D0
:10140000FC01E057FF4F8491882349F190E0880F59
:10141000991FFC01E854FF4FA591B49182559F4F4D
:10142000FC01C591D4919FB7611108C0F8948C91CB
:10143000209582238C93888182230AC0623051F4E4
:10144000F8948C91322F309583238C938881822B52
:10145000888304C0F8948C91822B8C939FBFDF917A
:10146000CF9108950F931F93CF93DF931F92CDB722
:10147000DEB7282F30E0F901E859FF4F8491F901D8
:10148000E458FF4F1491F901E057FF4F04910023F6
:10149000C9F0882321F069830E94D0096981E02F77
:1014A000F0E0EE0FFF1FE255FF4FA591B4919FB7FB
:1014B000F8948C91611103C01095812301C0812B98
:1014C0008C939FBF0F90DF91CF911F910F91089543
:1014D000CF93DF93282F30E0F901E859FF4F849133
:1014E000F901E458FF4FD491F901E057FF4FC4913F
:1014F000CC2391F081110E94D009EC2FF0E0EE0F87
:10150000FF1FEC55FF4FA591B4912C912D2381E045
:1015100090E021F480E002C080E090E0DF91CF9184
:101520000895FC01818D228D90E0805C9F4F821B8D
:1015300091098F7399270895FC01918D828D9817D9
:1015400031F0828DE80FF11D858D90E008958FEFC9
:101550009FEF0895FC01918D828D981761F0828D27
:10156000DF01A80FB11D5D968C91928D9F5F9F73D7
:10157000928F90E008958FEF9FEF08958EE29CE0A8
:10158000892B49F080E090E0892B29F00E942E0CF5
:1015900081110C9400000895FC01848DDF01A80FD7
:1015A000B11DA35ABF4F2C91848D90E001968F738B
:1015B0009927848FA689B7892C93A089B1898C91AA
:1015C00080648C93938D848D981306C00288F38970
:1015D000E02D80818F7D80830895CF93DF93EC0190
:1015E000888D8823C9F0EA89FB89808185FD05C043
:1015F000A889B9898C9186FD0FC00FB607FCF5CF7D
:10160000808185FFF2CFA889B9898C9185FFEDCFC4
:10161000CE010E94CC0AE7CFDF91CF910895CF92FF
:10162000DF92FF920F931F93CF93DF931F92CDB75B
:10163000DEB76C0181E0D60158968C9358975B9683
:101640009C915B975C968C915C97981307C0509621
:10165000ED91FC915197808185FD2EC0F601038D9F
:1016600010E00F5F1F4F0F731127F02EF601848DCE
:10167000F81211C00FB607FCF9CFD6015096ED91C4
:10168000FC915197808185FFF1CFC60169830E944B
:10169000CC0A6981EBCF838DE80FF11DE35AFF4F30
:1016A0006083D6015B960C935B975296ED91FC910B
:1016B0005397808180620CC0D6015696ED91FC91C3
:1016C000579760835096ED91FC915197808180648B
:1016D000808381E090E00F90DF91CF911F910F9177
:1016E000FF90DF90CF900895BF92CF92DF92EF925C
:1016F000FF92CF93DF93EC016A017B01B22EE88960
:10170000F98982E08083411581EE580761057105F2
:10171000A1F060E079E08DE390E0A70196010E94DE
:101720005E0E21503109410951095695479537956B
:101730002795211580E1380798F0E889F98910820A
:1017400060E874E88EE190E0A70196010E945E0EC9
:1017500021503109410951095695479537952795EB
:10176000EC85FD853083EE85FF852083188EEC891E
:10177000FD89B082EA89FB89808180618083EA8962
:10178000FB89808188608083EA89FB898081806809
:101790008083EA89FB8980818F7D8083DF91CF916F
:1017A000FF90EF90DF90CF90BF9008951F920F921F
:1017B0000FB60F9211242F938F939F93EF93FF9364
:1017C000E091C003F091C1038081E091C603F091E4
:1017D000C70382FD12C090818091C9038F5F8F7310
:1017E0002091CA03821751F0E091C903F0E0E0555F
:1017F000FC4F958F8093C90301C08081FF91EF91C9
:101800009F918F912F910F900FBE0F901F90189561
:101810001F920F920FB60F9211242F933F934F9365
:101820005F936F937F938F939F93AF93BF93EF9348
:10183000FF9380EB93E00E94CC0AFF91EF91BF9160
:10184000AF919F918F917F916F915F914F913F9158
:101850002F910F900FBE0F901F90189580EB93E083
:101860000E94910A21E0892B09F420E0822F08953B
:101870001092B3031092B20388EE93E0A0E0B0E0C0
:101880008093B4039093B503A093B603B093B703CA
:1018900085E591E09093B1038093B00385EC90E0EF
:1018A0009093BD038093BC0384EC90E09093BF03BE
:1018B0008093BE0380EC90E09093C1038093C003BB
:1018C00081EC90E09093C3038093C20382EC90E09C
:1018D0009093C5038093C40386EC90E09093C70374
:1018E0008093C6031092C9031092CA031092CB03CF
:1018F0001092CC030895CF92DF92EF92FF920F9354
:101900001F93CF93DF937C016A01EB0100E010E0AD
:101910000C151D0571F06991D701ED91FC910190B5
:10192000F081E02DC7010995892B19F00F5F1F4F3A
:10193000EFCFC801DF91CF911F910F91FF90EF90F2
:10194000DF90CF9008956115710581F0DB010D9056
:101950000020E9F7AD0141505109461B570BDC014E
:10196000ED91FC910280F381E02D099480E090E0FC
:101970000895DC01ED91FC91DB0114964D915C9191
:1019800015976D917C910280F381E02D09940C9460
:10199000A30C61E671E00C94A30C0F931F93CF93FB
:1019A000DF93EC010E94B90C8C01CE010E94C90C9E
:1019B000800F911FDF91CF911F910F910895FC012E
:1019C000808191810C941E0FCF93DF93EC0188816D
:1019D0009981009711F00E941E0F198218821D82B2
:1019E0001C821B821A82DF91CF9108950F931F935F
:1019F000CF93DF93EC018B016F5F7F4F88819981DB
:101A00000E94AD0F009731F0998388831B830A836E
:101A100081E001C080E0DF91CF911F910F91089587
:101A2000CF93DF93EC0188819981892B29F08A81FA
:101A30009B818617970760F4CE010E94F60C8823DD
:101A400041F08C819D81892B19F4E881F981108204
:101A500081E0DF91CF910895EF92FF920F931F9352
:101A6000CF93DF93EC017B018A01BA010E94100D34
:101A7000811104C0CE010E94E40C07C01D830C83B9
:101A8000B701888199810E948010CE01DF91CF91AA
:101A90001F910F91FF90EF900895FC011182108229
:101AA00013821282158214826115710559F0FB01AF
:101AB00001900020E9F7AF0141505109461B570B37
:101AC0000C942C0D0895CF93DF93EC01FB01861746
:101AD000970761F0608171816115710529F044817A
:101AE00055810E942C0D02C00E94E40CCE01DF91B2
:101AF000CF910895FC011182108213821282158207
:101B000014820C94630DCF93DF93EC016115710582
:101B100061F0FB0101900020E9F7AF01415051094C
:101B2000461B570B0E942C0D02C00E94E40CCE01F4
:101B3000DF91CF9108950F931F93CF93DF93CDB78C
:101B4000DEB729970FB6F894DEBF0FBECDBF8C016C
:101B5000862FF8011182108213821282158214825C
:101B600050E0BE016F5F7F4F90E00E949D10BE016C
:101B70006F5F7F4FC8010E94830D29960FB6F894BE
:101B8000DEBF0FBECDBFDF91CF911F910F910895A2
:101B90000F931F93CF93DF93CDB7DEB762970FB646
:101BA000F894DEBF0FBECDBF8C01CB01F8011182CE
:101BB0001082138212821582148250E0BE016F5F80
:101BC0007F4F0E948710BE016F5F7F4FC8010E9448
:101BD000830D62960FB6F894DEBF0FBECDBFDF91C6
:101BE000CF911F910F910895EF92FF920F931F9342
:101BF000CF93DF93EC017B010C811D816115710591
:101C000011F480E016C04115510591F0040F151F25
:101C1000B8010E94100D8823A1F3288139818C819D
:101C20009D81B701820F931F0E9480101D830C833A
:101C300081E0DF91CF911F910F91FF90EF90089578
:101C4000CF93DF93EC01FB01448155816081718169
:101C50000E94F40D811103C0CE010E94E40CCE015C
:101C6000DF91CF910895CF93DF93EC01611571055A
:101C700069F0FB0101900020E9F7AF0141505109E3
:101C8000461B570B0E94F40D811103C0CE010E9428
:101C9000E40CCE01DF91CF91089508950E9495093B
:101CA0000E944D0E0E94BA00CEEBDAE00E94C30300
:101CB0002097E1F30E94BE0AF9CF0895A1E21A2EFF
:101CC000AA1BBB1BFD010DC0AA1FBB1FEE1FFF1FE0
:101CD000A217B307E407F50720F0A21BB30BE40B30
:101CE000F50B661F771F881F991F1A9469F7609577
:101CF0007095809590959B01AC01BD01CF01089531
:101D0000EE0FFF1F0590F491E02D0994CF93DF9320
:101D10008230910510F482E090E0E0914F04F09160
:101D2000500420E030E0A0E0B0E0309739F140818D
:101D3000518148175907B8F04817590771F4828143
:101D40009381109729F013969C938E9312972CC031
:101D50009093500480934F0427C02115310531F032
:101D60004217530718F0A901DB0101C0EF019A01E6
:101D7000BD01DF010280F381E02DD7CF21153105B0
:101D8000F9F0281B390B2430310580F48A819B81BE
:101D90006115710521F0FB019383828304C0909348
:101DA000500480934F04FE01329644C0FE01E20FBE
:101DB000F31F8193919322503109398328833AC0CC
:101DC00020914D0430914E04232B41F420910201C7
:101DD0003091030130934E0420934D042091000173
:101DE000309101012115310541F42DB73EB74091E5
:101DF000040150910501241B350BE0914D04F09135
:101E00004E04E217F307A0F42E1B3F0B28173907E7
:101E100078F0AC014E5F5F4F2417350748F04E0F46
:101E20005F1F50934E0440934D048193919302C0E1
:101E3000E0E0F0E0CF01DF91CF910895CF93DF9301
:101E4000009709F487C0FC01329713821282C09177
:101E50004F04D0915004209781F420813181280FC4
:101E6000391F80914D0490914E048217930779F5A4
:101E7000F0934E04E0934D046DC0DE0120E030E0AD
:101E8000AE17BF0750F412964D915C9113979D01C8
:101E90004115510509F1DA01F3CFB383A2834081E3
:101EA0005181840F951F8A179B0771F48D919C9126
:101EB0001197840F951F02969183808312968D91BE
:101EC0009C911397938382832115310529F4F09314
:101ED0005004E0934F043EC0D9011396FC93EE9357
:101EE00012974D915D91A40FB51FEA17FB0779F486
:101EF00080819181840F951F0296D90111969C9340
:101F00008E938281938113969C938E931297E0E037
:101F1000F0E08A819B81009719F0FE01EC01F9CF76
:101F2000CE01029628813981820F931F20914D04A2
:101F300030914E042817390769F4309729F410922C
:101F4000500410924F0402C013821282D0934E04A8
:101F5000C0934D04DF91CF910895A0E0B0E0E3EB92
:101F6000FFE00C94EC10EC01CB01209719F40E94D7
:101F7000860EB8C0FE01E60FF71F9E012250310900
:101F8000E217F30708F4ACC0D9010D911C91119729
:101F900006171707B8F00530110508F49FC0A8010F
:101FA000445051094617570708F498C002501109C8
:101FB000061B170B019311936D937C93CF010E9425
:101FC0001E0F8CC05B01A01AB10A4E01800E911E3B
:101FD000A0914F04B0915004612C712C60E070E02E
:101FE000109709F449C0A815B905C9F5ED90FC9002
:101FF0001197670142E0C40ED11CCA14DB0478F1CA
:1020000047018A189B08640142E0C40ED11C129655
:10201000BC9012971396AC91B5E0CB16D10440F06A
:10202000B282A38391828082D9018D939C9309C04F
:102030000E5F1F4F0E0D1F1DF90111830083EB2D45
:10204000FA2F6115710531F0DB011396FC93EE93C5
:10205000129744C0F0935004E0934F043FC06D9139
:102060007C9111976616770608F43B01BD01129624
:102070000D90BC91A02DB4CF60914D0470914E0491
:1020800068157905E9F468167906D0F440910001E5
:10209000509101014115510541F44DB75EB7609172
:1020A000040170910501461B570BE417F507C0F4B6
:1020B000F0934E04E0934D04F901918380830EC0A8
:1020C0000E94860E7C01009759F0A801BE010E9473
:1020D0007710CE010E941E0FC70104C0CE0102C0BE
:1020E00080E090E0CDB7DEB7EEE00C940811FB0184
:1020F000DC0102C001900D9241505040D8F7089584
:10210000FB01DC0101900D920020E1F708954532BA
:10211000510520F4423010F00C949210FB01108213
:10212000CB010895BB274A3031F4992322F4BDE254
:10213000909581959F4F0C94A9104532510520F43C
:10214000423010F00C94A810FB011082CB010895CE
:10215000BB27FB015527AA27880F991FAA1FA41781
:1021600010F0A41B83955051B9F7A05DAA3308F075
:10217000A95DA193009779F7B111B1931192CB01A9
:102180000C94D810F999FECF92BD81BDF89A992789
:1021900080B50895262FF999FECF1FBA92BD81BD53
:1021A00020BD0FB6F894FA9AF99A0FBE01960895D9
:1021B000DC01FC01672F71917723E1F7329704C0AE
:1021C0007C916D9370836291AE17BF07C8F3089539
:1021D0002F923F924F925F926F927F928F929F9237
:1021E000AF92BF92CF92DF92EF92FF920F931F9325
:1021F000CF93DF93CDB7DEB7CA1BDB0B0FB6F894D6
:10220000DEBF0FBECDBF09942A88398848885F8415
:102210006E847D848C849B84AA84B984C884DF8086
:10222000EE80FD800C811B81AA81B981CE0FD11D6A
:102230000FB6F894DEBF0FBECDBFED01089510E0DC
:10224000C6ECD0E004C0FE010E94820E2296C83C7B
:08225000D107C9F7F894FFCF94
:1022580000005104800030005B2020200020202056
:102268005D005B20202020203A0045584954205327
:10227800455420444F574E205550003A20203A00EC
:102288004F4E20004F464600535754204D454E2090
:1022980054494D4520525354000000000094077BD8
:1022A8000C000000000F0B7B0C910AAA0A9C0AED97
:1022B8000A0D0A006E616E00696E66006F76660030
:0222C8002E00E6
:107800000C94343C0C94513C0C94513C0C94513CE1
:107810000C94513C0C94513C0C94513C0C94513CB4
:107820000C94513C0C94513C0C94513C0C94513CA4
:107830000C94513C0C94513C0C94513C0C94513C94
:107840000C94513C0C94513C0C94513C0C94513C84
:107850000C94513C0C94513C0C94513C0C94513C74
:107860000C94513C0C94513C11241FBECFEFD8E036
:10787000DEBFCDBF11E0A0E0B1E0ECE9FFE702C060
:1078800005900D92A230B107D9F712E0A2E0B1E065
:1078900001C01D92AD30B107E1F70E942D3D0C945F
:1078A000CC3F0C94003C982F959595959595959582
:1078B000905D8F708A307CF0282F295A8091C0000B
:1078C00085FFFCCF9093C6008091C00085FFFCCF60
:1078D0002093C6000895282F205DF0CF982F809127
:1078E000C00085FFFCCF9093C6000895EF92FF92F1
:1078F0000F931F93EE24FF2487018091C00087FD22
:1079000017C00894E11CF11C011D111D81E4E8164B
:1079100082E4F8068FE0080780E0180770F3E09132
:107920000401F091050109958091C00087FFE9CF1E
:107930008091C6001F910F91FF90EF9008950E94D3
:10794000763C982F8091C00085FFFCCF9093C600B5
:1079500091362CF490330CF09053892F089597555D
:10796000892F08951F930E949F3C182F0E949F3CCF
:107970001295107F810F1F9108951F93182F882350
:1079800021F00E94763C1150E1F71F9108951F935A
:10799000182F0E94763C803249F0809103018F5F5E
:1079A000809303018530C1F01F9108958091C0003C
:1079B00085FFFCCF84E18093C6008091C00085FFE5
:1079C000FCCF1093C6008091C00085FFFCCF80E102
:1079D0008093C6001F910895E0910401F091050184
:1079E00009951F9108950E94763C803241F0809164
:1079F00003018F5F80930301853081F008958091AA
:107A0000C00085FFFCCF84E18093C6008091C00058
:107A100085FFFCCF80E18093C6000895E0910401CA
:107A2000F09105010995089540E951E08823A1F0FE
:107A30002D9A28EE33E0FA013197F1F721503040CA
:107A4000D1F72D9828EE33E0FA013197F1F7215064
:107A50003040D1F7815061F708953F924F925F9285
:107A60006F927F928F929F92AF92BF92CF92DF924E
:107A7000EF92FF920F931F93CF93DF93000080E16B
:107A80008093C4001092C50088E18093C10086E015
:107A90008093C2005098589A259A81E00E94143D24
:107AA00024E1F22E9EE1E92E85E9D82E0FE0C02ECA
:107AB00010E1B12EAA24A394B1E49B2EA6E58A2E50
:107AC000F2E57F2EE0E26E2E79E4572E63E5462E36
:107AD00050E5352E0E94763C8033B1F18133B9F107
:107AE000803409F46FC0813409F476C0823409F41B
:107AF00085C0853409F488C0803531F1823521F1A3
:107B0000813511F1853509F485C0863509F48DC0BC
:107B1000843609F496C0843709F403C1853709F423
:107B200072C1863709F466C0809103018F5F80932C
:107B30000301853079F6E0910401F0910501099582
:107B40000E94763C803351F60E94F33CC3CF0E94E2
:107B5000763C803249F78091C00085FFFCCFF092DF
:107B6000C6008091C00085FFFCCF9092C600809136
:107B7000C00085FFFCCF8092C6008091C00085FFC9
:107B8000FCCF7092C6008091C00085FFFCCF609250
:107B9000C6008091C00085FFFCCF5092C600809146
:107BA000C00085FFFCCF4092C6008091C00085FFD9
:107BB000FCCF3092C6008091C00085FFFCCFB09210
:107BC000C60088CF0E94763C863808F4BDCF0E945C
:107BD000763C0E94F33C7ECF0E94763C803809F4CC
:107BE0009CC0813809F40BC1823809F43CC1883942
:107BF00009F48FC080E00E94C73C6CCF84E10E94F2
:107C0000BD3C0E94F33C66CF85E00E94BD3C0E94D3
:107C1000F33C60CF0E94763C809306010E94763C44
:107C2000809307010E94F33C55CF0E94763C80333D
:107C300009F41DC183E00E94BD3C80E00E94C73C66
:107C400049CF0E94763C809309020E94763C809343
:107C5000080280910C028E7F80930C020E94763C79
:107C6000853409F415C18091080290910902892B8D
:107C700089F000E010E00E94763CF801E85FFE4FDA
:107C800080830F5F1F4F80910802909109020817AF
:107C9000190788F30E94763C803209F045CF809125
:107CA0000C0280FF01C16091060170910701660F0F
:107CB000771F7093070160930601A0910802B091AD
:107CC00009021097C9F0E8E0F1E09B01AD014E0F09
:107CD0005F1FF999FECF32BD21BD819180BDFA9A17
:107CE000F99A2F5F3F4FE417F50799F76A0F7B1F4B
:107CF00070930701609306018091C00085FFFCCF5F
:107D0000F092C6008091C00085FFFCCFB092C60003
:107D1000E1CE83E00E94C73CDDCE82E00E94C73CFA
:107D2000D9CE0E94763C809309020E94763C8093D3
:107D300008028091060190910701880F991F909386
:107D40000701809306010E94763C853409F4A6C0A1
:107D500080910C028E7F80930C020E94763C8032D0
:107D600009F0B8CE8091C00085FFFCCFF092C6002C
:107D7000609108027091090261157105B9F140E046
:107D800050E080910C02A82FA170B82FB27011C0E2
:107D9000BB2309F45CC0E0910601F0910701319624
:107DA000F0930701E09306014F5F5F4F46175707B7
:107DB000E8F4AA2369F3F999FECF209106013091E6
:107DC000070132BD21BDF89A90B58091C00085FFB2
:107DD000FCCF9093C6002F5F3F4F30930701209355
:107DE00006014F5F5F4F4617570718F38091C00099
:107DF00085FDE5CE8091C00085FFF8CFE0CE81E023
:107E00000E94C73C67CE0E94763C803209F08CCE3F
:107E10008091C00085FFFCCFF092C6008091C00029
:107E200085FFFCCFE092C6008091C00085FFFCCFAB
:107E3000D092C6008091C00085FFFCCFC092C600E2
:107E40008091C00085FFFCCFB092C60043CEE09188
:107E50000601F091070194918091C00085FFFCCF4D
:107E60009093C6009CCF80E10E94C73C33CE0E9415
:107E7000763C0E94763C182F0E94763C112309F430
:107E800083C0113009F484C08FE00E94C73C22CE29
:107E900080910C02816080930C02E5CE80910C02EF
:107EA000816080930C0259CF809107018823880F4D
:107EB000880B8A2180930B02809106019091070123
:107EC000880F991F90930701809306018091080203
:107ED00080FF09C080910802909109020196909359
:107EE000090280930802F894F999FECF1127E091D6
:107EF0000601F0910701C8E0D1E08091080290915D
:107F00000902103091F40091570001700130D9F34B
:107F100003E000935700E89500915700017001308D
:107F2000D9F301E100935700E89509901990009169
:107F3000570001700130D9F301E000935700E89534
:107F40001395103498F011270091570001700130FB
:107F5000D9F305E000935700E895009157000170B0
:107F60000130D9F301E100935700E895329602976A
:107F700009F0C7CF103011F00296E5CF112480919F
:107F8000C00085FFB9CEBCCE8EE10E94C73CA2CD19
:0C7F900085E90E94C73C9ECDF894FFCF0D
:027F9C00800063
:040000030000780081
:00000001FF
